:020000000029D5
:10000800F000030EF100061C5D21861C612103131C
:1000180083120B1965210B10710E8300F00E700E00
:020028000900CD
:1002000030211C212321512103138312201AA00322
:10021000A01BA00A211A6C21221A6F212308240294
:100220000319A301200885002308A50025087221D1
:10023000A600260887000629031383160F140F173C
:100240008F120F12080003138316811281110115FA
:100250008114011403138312FC3081000B11080078
:100260000317831688018901031383160614861465
:100270000313831615149514031383168501870140
:1002800003138312850187010030A0000030A10014
:100290000030A2000030A3000A30A4000030A50006
:1002A000080003138316161496148B160B110313F0
:1002B00083128B178B150B100800061C5D29A00AF2
:1002C0000800861C6129A003080003138312FC3078
:1002D00081000B11A10A0800A101A20A0800A201D5
:1002E000A30A08008A018207DD345034CE34DA34A0
:1002F00053349B349F34D034DF34D334D7341F3459
:0A0300008D345E348F34873408001A
:04400E00D420FF3F7C
:00000001FF
