:020000000029D5
:10000800F000030EF100061E7721861E7B210313E4
:1000180083120B197F210B10710E8300F00E700EE6
:020028000900CD
:100200003D21292130216B21201AA003A01BA00A27
:10021000211A8221221A85212308260203198E2100
:10022000240825020319A40120088500210886005E
:10023000230824082308A70027080022A90029086A
:1002400087002408A80028080D22AA002A08880090
:100250000429031383160F140F178F120F120800AF
:1002600003138316811281110115811401140313E4
:100270008312FC3081000B110800031783168801DC
:1002800089010313831606108610061186110616BF
:100290008616031383161516951603138316850108
:1002A0008701880103138312850186018701880174
:1002B0000030A0000030A1000030A2000030A300F8
:1002C0000630A5000A30A6000030A7000030A800C4
:1002D0000030A400080003138316161696168B161A
:1002E0000B11031383128B178B150B100800061EBE
:1002F0007729A00A0800861E7B29A0030800882110
:10030000A10A0800A101A20A0800A201A30A08008C
:1003100003138312FC3081000B110800A301A40A0F
:020320000800D3
:100400008A018A148207DD345034CE34DA3453340E
:100410009B349F34D034DF34D3348A018A1482076A
:0E042000DD345034CE34DA3453349B349F3400
:04400E00D420FF3F7C
:00000001FF
